:0300000002004CAF
:100008000000E2FBEAF2802C0000E0FBEAF080242A
:10001800E6B50202EBF62200E2B50202EBF222009C
:10002800E0B50202EBF02230F6E0A88220F5D3EA30
:10003800C6F582228B822230F6E6A88220F5D98086
:01004800CFE8
:0300A5000200490D
:030049000200A80A
:1000A800750830750931750A32750B33750C34755E
:1000B8000D35750E41750F42751043751144751253
:0C00C800007F00EF2408F987900F80F7FC
:06007B00E478FFF6D8FD59
:100059007900E94400601B7A009000D8780175A006
:1000690000E493F2A308B8000205A0D9F4DAF27506
:02007900A0FFE6
:100081007800E84400600A790175A000E4F309D81A
:10009100FC7800E84400600C7900900001E4F0A3D2
:0400A100D8FCD9FAB4
:0D004C007581121200D4E5826003020049A4
:0400D400758200220F
:00000001FF
